:020000040800F2
:10000000001D002045140008D1030008D303000898
:10001000D7030008DB030008DF030008000000002E
:10002000000000000000000000000000E3030008E2
:10003000E503000800000000E7030008E9030008EA
:100040005F1400085F1400085F1400085F140008C4
:100050005F1400085F1400085F1400085F140008B4
:100060005F1400085F1400085F1400085F140008A4
:100070005F1400085F1400085F1400085F14000894
:100080005F1400085F1400085F1400085F14000884
:100090005F1400085F1400085F1400085F14000874
:1000A0005F1400085F1400085F1400085F14000864
:1000B0005F140008AF0600085F1400085F14000812
:1000C0005F1400085F1400085F1400085F14000844
:1000D0005F1400081F0800085F1400085F14000880
:1000E0005F1400085F1400085F1400085F14000824
:1000F0005F1400085F1400085F1400085F14000814
:100100005F1400085F1400085F1400085F14000803
:100110005F1400085F1400085F1400085F140008F3
:100120005F1400085F1400085F1400085F140008E3
:10013000DFF810D003F034FA004800474901000806
:10014000AFF30080001D002008B5002401F010F975
:1001500000F03CFA00F060FA4FF4165000F0D6FAC6
:100160004FF4165000F022FB01F084F841F61F41D5
:10017000132000F06DFA00F020FFD8E0642001F0B9
:1001800034F96B4801F027F80446012C7DD100209A
:100190006849087000F0F0FB642001F026F9102394
:1001A00000221146122000F0F6FD1023012200214A
:1001B000242000F0F0FD102302221946122000F046
:1001C000EAFD102303221946242000F0E4FD10204C
:1001D00000905748827802230021362000F0A1FDCC
:1001E000102355A20021482000F06FFD1020009040
:1001F0004F48C27801230021502000F092FD1023C7
:1002000004220021582000F0C6FD494880781A28B1
:1002100009DD01204949086049A003F00FFA422096
:100220004C49087002E0002044490860642001F055
:10023000DCF8102000903E4802780223102136207E
:1002400000F06FFD10233CA21946482000F03DFD50
:10025000102000903648427801231021502000F0F1
:1002600060FD10233CA21946582000F02EFD3048B6
:10027000007850280ADD01203049086037A003F0DB
:10028000DDF942203349087003E04CE000202B499F
:100290000860642001F0A9F82E480078412842D176
:1002A0002C48807941283ED12A48807837283AD195
:1002B000642001F09AF827484078312809D1254870
:1002C000C078312805D101201C49086027A003F01F
:1002D000B5F920484078312809D11E48C078322825
:1002E00005D127A003F0AAF9002014490860194895
:1002F0004078322809D11748C078312805D10C48F8
:10030000C278817824A003F099F912484078322805
:1003100009D11048C078322805D1054842780178C3
:1003200023A003F08BF914B926A003F087F925E781
:100330004E140020140000202E000000A081214255
:1003400054656D7065747572652048696768210A27
:1003500000000000741400205248000048756D69C8
:100360006469747920486967680A000042656570AD
:100370002069732073696E67696E672E0A0000003A
:1003800042656570206973206E6F742073696E67B3
:10039000696E672E0A00000054656D7065726174A5
:1003A0007572653A2025642E2564A1E60D0A0000C9
:1003B00048756D69646974793A2025642E25645204
:1003C000480D0A0044415441204552524F522100E9
:1003D000704700BFFEE700BFFEE700BFFEE700BFBB
:1003E000FEE7704770477047704700000CB500206B
:1003F000019000906C48006840F480306A490860C1
:1004000000BF6948006800F4003000900198401C6B
:100410000190009818B90198B0F5A06FF1D1624829
:10042000006800F4003010B10120009001E00020CD
:1004300000900098012843D15C48006840F010000B
:100440005A4908600846006820F003000860084622
:10045000006840F002000860534840685249486014
:100460000846406848600846406840F4806048603C
:100470000846406820F47C1048600846406840F414
:10048000E81048600846006840F08070086000BFCF
:100490004548006800F000700028F9D042484068E4
:1004A00020F00300404948600846406840F00200E0
:1004B000486000BF3C48406800F00C000828F9D1B3
:1004C0000CBD10B5FFF792FF10BD10B5364800689F
:1004D00040F001003449086008464068344908404B
:1004E0003149486008460068324908402E49086092
:1004F0000846006820F4802008600846406820F420
:10050000FE0048604FF41F008860FFF7DAFF4FF0ED
:1005100000602949086010BD10B5002100200022AC
:10052000214B5B6803F00C0121B1042906D0082996
:1005300028D107E0214B224C236027E01F4B204CA1
:10054000236023E0184B5B6803F47010164B5B6864
:1005500003F48032022303EB904022B9194B43434A
:10056000174C23600DE0104B5B6803F4003323B19C
:10057000144B4343124C236003E0104B4343104C95
:10058000236003E00D4B0E4C236000BF00BF064B01
:100590005B68C3F303130C4CE15C094B1B68CB4055
:1005A000074C236010BD00000010024000200240F4
:1005B0000000FFF8FFFFF6FE08ED00E000127A00F1
:1005C0000000002000093D000400002008B50121C2
:1005D000482001F0D3FA2020ADF8000010208DF85B
:1005E000030003208DF802006946094801F00AF86B
:1005F0002021074801F0B3F82020ADF8000069463B
:10060000044800F0FFFF2021024801F0A8F808BDCF
:10061000000C01400018014008B50121082001F03C
:10062000ADFA4FF48070ADF8000003208DF80200A1
:1006300010208DF803006946044800F0E3FF4FF4F2
:100640008071024801F08DF808BD0000000C0140E7
:100650007FB505460C460121022001F09CFA0020DE
:10066000ADF80A00ADF80600A8B2ADF80800A0B2D7
:10067000ADF8040001A91A4801F0C6FD1D208DF84F
:10068000000001208DF8030000208DF801000320F8
:100690008DF80200684600F0ECFE01221146104879
:1006A00002F029F900210E4802F00AF97FBD10B5C9
:1006B00001210B4802F0CDFB88B10121084802F06E
:1006C000D9FB012007490870002007490870002164
:1006D000034802F0F5F80021014802F0F1F910BDDD
:1006E00000040040140000201500002070B50446EE
:1006F0000D46E1B25F4801F0EEFB00BF40215D48CE
:1007000001F0DCFB0028F9D0204670BD10B586B0A2
:1007100004460121042001F031FA0121880301F08F
:100720002DFA4FF40070ADF8140003208DF8160078
:1007300018208DF8170005A94F4800F063FF4FF40B
:100740008060ADF8140004208DF8170005A94A4810
:1007500000F058FF01940020ADF80800ADF80A0041
:10076000ADF80C00ADF810000C20ADF80E0001A99A
:10077000404801F0AAFA25208DF8000001208DF8EC
:10078000030000208DF8010004208DF80200684667
:1007900000F06FFE012240F22551364801F02DFB9A
:1007A0000121344801F01DFB06B010BD10B586B024
:1007B00004460121042001F0EEF90121480401F072
:1007C000EAF90420ADF8140003208DF81600182073
:1007D0008DF8170005A9284800F014FF0820ADF88F
:1007E000140004208DF8170005A9234800F00AFF23
:1007F00001940020ADF80800ADF80A00ADF80C0037
:10080000ADF810000C20ADF80E0001A91B4801F056
:100810005CFA0121194801F0E4FA06B010BD10B5E8
:100820000021174802F04CF840F22551114801F020
:10083000D3FB90B10F4801F05CFBC1B211480278C4
:100840000078401C0F4B18700F48815418460078F0
:10085000072802D10020194608700021084802F03C
:10086000C3FA0121064802F02BF80021044802F0E7
:1008700027F910BD00380140000801400044004045
:1008800000040040150000207414002070B50446D8
:100890000E4626B10221FE4800F061FF03E002216E
:1008A000FB4800F05EFF1021FA4800F05AFF0025D7
:1008B00017E02021F74800F054FF04F0800020B139
:1008C0008021F44800F04BFF03E08021F14800F064
:1008D00048FF2021EF4800F042FF6006040E681C2C
:1008E000C5B2082DE5DB1021EA4800F038FF0221EF
:1008F000E74800F034FF70BD10B504461CB9002174
:10090000A620FFF7C3FF012C03D10021A720FFF78A
:10091000BDFF10BD10B504463CB90021C820FFF74B
:10092000B5FF0021A120FFF7B1FF012C07D1002165
:10093000C020FFF7ABFF0021A020FFF7A7FF10BDED
:1009400010B500218D20FFF7A1FF00211420FFF733
:100950009DFF0021AF20FFF799FF10BD10B50021CA
:100960008D20FFF793FF00211020FFF78FFF00215C
:10097000AF20FFF78BFF10BD70B500241CE004F121
:10098000B001C8B20021FFF781FF00210846FFF740
:100990007DFF00211020FFF779FF002508E0BE4908
:1009A00001EBC501085D0121FFF770FF681CC5B2AE
:1009B000802DF4DB601CC4B2082CE0DB70BD70B588
:1009C00000240CE0002506E00020B34901EBC5013E
:1009D0000855681CC5B2802DF6DB601CC4B2082C1B
:1009E000F0DBFFF7C9FF70BD70B50A46CE1701EB0B
:1009F0005676C6F3C703CE1701EB5676F610A1EB79
:100A0000C606F4B20122A240D5B2A34A02EBC0024C
:100A1000D25C2A43A04E06EBC006F25470BD70B5FE
:100A20000B46CE1701EB5676C6F3C702CE1701EB85
:100A30005676F610A1EBC606F4B20123A340DDB250
:100A4000954B03EBC0039B5CDB43934E06EBC00668
:100A5000B354914B03EBC0039B5C2B438E4E06EBD0
:100A6000C006B3548C4B03EBC0039B5CDB438A4E44
:100A700006EBC006B35470BD2DE9F84F05460E468F
:100A800017469846002D0ADD802F08DC002E06DD73
:100A9000B8F1400F03DCBD4201DC464501DDBDE895
:100AA000F88FBD420DD1002406E03019C1B22846AE
:100AB000FFF79AFF601CC4B2A8EB0600A042F4DC6A
:100AC00030E046450CD1002406E02919C8B2314671
:100AD000FFF78AFF601CC4B2781BA042F5DC21E05E
:100AE000A8EB060000F0FF0A781B00F0FF0B0AEBF2
:100AF0008A00400090FBFBF000F0FF0900240EE0AC
:100B000004FB09F00A2190FBF1F03044C0B229192E
:100B10000090C8B20099FFF767FF601CC4B2781B51
:100B2000A042EDDC00BFBAE72DE9F04306460F46D0
:100B30009046002544463BE03A1BD1B27219D0B230
:100B4000FFF752FF3A1BD1B2721BD0B2FFF74CFF36
:100B50003A19D1B2721BD0B2FFF746FF3A19D1B29F
:100B60007219D0B2FFF740FF7A19D1B23219D0B260
:100B7000FFF73AFF7A1BD1B23219D0B2FFF734FF38
:100B80007A1BD1B2321BD0B2FFF72EFF7A19D1B245
:100B9000321BD0B2FFF728FF6D1C05FB05F004FBEC
:100BA000040008FB1809B9F1000F01DD641E6D1E79
:100BB0006000604308FB08F18842BDDABDE8F083BD
:100BC0002DE9FF4F81B080460E461C460096204618
:100BD000E31704EB5373DB1021464FEAE47C04EB8C
:100BE0005C7C4FEAEC0CA4EBCC0CBCF1000F02D007
:100BF0004FF0010C01E04FF0000C6344224604EB7F
:100C0000D27C4FEA6C0C03FB0CF303F0FF0B039850
:100C10002038C7B2002554E00C2C07D107EB470061
:100C20001E4901EB800010F805A014E0102C05D13E
:100C30001B4800EB071010F805A00CE0182C07D19A
:100C400007EBC700174901EB800010F805A002E090
:100C500005B0BDE8F08F4FF000092CE00AF08000ED
:100C600020B131464046FFF7BFFE03E03146404623
:100C7000FFF7D5FE4FEA4A604FEA106A701CC6B211
:100C80000098301AA04212D1009E08F101000BE03A
:100C9000000C0140000801407D140020D23A0008F9
:100CA000463F00083645000800F0FF0806E009F15D
:100CB000010000F0FF09B9F1080FCFDB00BF681C8D
:100CC000C5B25D45A8DB00BFC2E7F0B506460F46DA
:100CD00014461D4613E022782B4639463046FFF76E
:100CE0006FFF284605EBD07106EB6101CEB2C5F16E
:100CF0008000B04202DA0026B81CC7B2641C20781B
:100D0000202802DB20787E28E5DDF0BD10B5024604
:100D1000012000E050430B1EA1F10104E1B2F9D122
:100D200010BD2DE9F04F06468A4691461F46099CA4
:100D300000252CE0781B401EC1B20A20FFF7E6FF19
:100D4000B9FBF0F00A21B0FBF1F201FB1208B8F197
:100D5000000F0CD1A34604EBDB71491001FB0561C8
:100D6000C8B2234630225146FFF72AFF0DE0A346C2
:100D700004EBDB71491001FB0561C8B208F13001D9
:100D8000CAB223465146FFF71BFF681CC5B2BD42DD
:100D9000D0DBBDE8F08F2DE9FF4F0746884691462E
:100DA0001C464FF0000B0297CDF804802046E11757
:100DB00004EB5171C1F3C701009160E009FB04F03D
:100DC000C11700EB51710BEBE101CEB20BF1010049
:100DD00000F0FF0B002550E0102C05D1D04800EBAF
:100DE0000610405D03901BE0182C07D106EBC600EF
:100DF000CC4901EBC000405D039011E0202C05D1EF
:100E0000C94800EBC610405D039009E0402C05D1B5
:100E1000C64800EB4620405D039001E0BDE8FF8F2F
:100E20004FF0000A17E0039800F0010020B141469E
:100E30003846FFF7D9FD03E041463846FFF7EFFD9E
:100E400003984010039008F1010000F0FF080AF138
:100E5000010000F0FF0ABAF1080FE4DB781CC7B20A
:100E60000298381AA04204D1029F01980830C0B2FB
:100E70000190DDF80480681CC5B2A542ACDB009887
:100E8000411EC9B20091002898D100BFC6E7804634
:100E900089460026002749E03FB910233246182131
:100EA0009220FFF778FF701CC6B2464522D14FF062
:100EB000000A1AE0002410E000250AE09C4800EB3C
:100EC000C400415D601E9A4A02EBC0004155681C97
:100ED000C5B2082DF2DB601CC4B2902CECDBFFF72E
:100EE0004BFD0AF1010000F0FF0A4FEA09105045DE
:100EF000E0DC0026781CC7B2102F00D100270024A8
:100F000010E000250AE08A4800EBC400415D601E45
:100F1000874A02EBC0004155681CC5B2082DF2DBC0
:100F2000601CC4B2902CECDBFFF726FDB4E770B573
:100F300004460D4605F1B001C8B20021FFF7A6FC3A
:100F4000102141EA14100021FFF7A0FC04F00F006B
:100F50000021FFF79BFC70BD2DE9F05F05460E46B2
:100F600017469846DDF828B04FF00009CA4600241D
:100F7000E11704EB5171C910A4EBC10101B901E003
:100F8000601CC4B2344614E021462846FFF7CFFF68
:100F9000AA460AE01BF809000121FFF777FC09F1D6
:100FA00001090AF1010000F0FF0ABA45F2DB601CFA
:100FB000C4B24445E8DBBDE8F09F08B50121042038
:100FC00000F0DCFDB020ADF8000010208DF803002B
:100FD00003208DF802006946564800F013FBB0214B
:100FE000544800F0BCFB0121082000F0C7FD40F28E
:100FF0000310ADF8000010208DF8030003208DF8D9
:10100000020069464C4800F0FDFA40F203114A48DC
:1010100000F0A5FB0121484800F0A1FB642000F08E
:10102000E4F90121444800F09CFBC82000F0DDF900
:101030000121414800F093FB0021AE20FFF726FC80
:1010400000210846FFF722FC00211020FFF71EFCBC
:1010500000214020FFF71AFC00218120FFF716FC39
:101060000021CF20FFF712FC0021A120FFF70EFC8A
:101070000021C820FFF70AFC0021A620FFF706FC8C
:101080000021A820FFF702FC00213F20FFF7FEFB14
:101090000021D320FFF7FAFB00210846FFF7F6FBFB
:1010A0000021D520FFF7F2FB00218020FFF7EEFBA7
:1010B0000021D920FFF7EAFB0021F120FFF7E6FB32
:1010C0000021DA20FFF7E2FB00211220FFF7DEFB10
:1010D0000021DB20FFF7DAFB00214020FFF7D6FBE1
:1010E00000212020FFF7D2FB00210220FFF7CEFBDA
:1010F00000218D20FFF7CAFB00211420FFF7C6FB5B
:101100000021A420FFF7C2FB0021A620FFF7BEFBB1
:101110000021AF20FFF7BAFBFFF751FC08BD00002C
:1011200016000020760100204E0200204E04002010
:101130007D14002000080140000C014008B5042087
:10114000ADF8000003208DF8020010208DF8030098
:101150006946474800F056FA08BD70B500240025DE
:1011600000BF25E000BF0421414800F0DEFA00285E
:10117000F9D0282000F015F904213D4800F0D5FAF7
:1011800001280DD100BF0421394800F0CEFA012812
:10119000F9D0C4F1070101208840C0B2054306E040
:1011A000C4F1070101208840C043C0B20540641C5F
:1011B000082CD7D3E8B270BD08B50420ADF8000004
:1011C00003208DF8020004208DF8030069462848AA
:1011D00000F018FA08BD10B50446FFF7AFFF042170
:1011E000234800F0BEFA162000F0FFF80421204842
:1011F00000F0B5FA1E2000F0D4F8FFF7DDFF04215F
:101200001B4800F092FA70BB00BF0421184800F0A0
:101210008CFA0028F9D000BF0421154800F085FAA7
:101220000128F9D0FFF799FF2070FFF796FF607053
:10123000FFF793FFA070FFF790FFE070FFF78DFFBF
:101240002071FFF77BFF0421094800F088FA20781D
:1012500061780844A1780844E178084421798842FB
:1012600002D1012010BD01E00020FBE70020F9E7DA
:101270000008014000B591B00121042000F07EFC7F
:101280000121480200F07AFC0121084600F069FCC7
:101290000220ADF8400000208DF8430010A930482E
:1012A00000F0B0F94FF4004000F0CCFB00200B90B0
:1012B00001208DF830008DF831004FF460200D9042
:1012C00001208DF83C0000200E900BA9254801F06C
:1012D000FCFD052301221146224801F08EFE224822
:1012E00001F0F4FF1F484C3000902048019001208D
:1012F0000390002002900A9020200890000209909C
:10130000C010079080100690002004908020059067
:101310006946154802F07CF80121134802F0A3F851
:101320000121104801F0FDFD01210E4801F004FEED
:101330000C4801F018FE00BF0A4801F019FE002811
:10134000FAD1084801F01EFE00BF064801F01FFE5A
:101350000028FAD10121034801F023FE11B000BD9D
:1013600000080140002401400800024054140020FD
:1013700010B56FF0040000F0C6F82E4800682E4942
:10138000B0FBF1F02D4908700846007800EB4001F1
:10139000C1EBC0104FF6FF7101EAC0002849088078
:1013A00010BD0146254A12784A434FF0E0235A61A6
:1013B00000229A611A46126942F001021A6100BFC6
:1013C0004FF0E022106900F001021AB100F48032FF
:1013D000002AF5D04FF0E022126922F001024FF00E
:1013E000E0231A6100229A6170470146144A12886C
:1013F0004A434FF0E0235A6100229A611A4612696B
:1014000042F001021A6100BF4FF0E022106900F0C3
:1014100001021AB100F48032002AF5D04FF0E02228
:10142000126922F001024FF0E0231A6100229A6152
:10143000704700000000002000127A0058140020BD
:101440005A1400200648804706480047FEE7FEE79A
:10145000FEE7FEE7FEE7FEE7FEE7FEE7FEE7FEE764
:10146000CB0400083101000831490143314A1160C1
:10147000704770B5002100230F22C47804B32D4CAF
:10148000246804F4E064C4F5E064210AC1F10403B3
:10149000CA40447804FA03F18478144021430901D6
:1014A000254C0678A155047804F01F050124AC40B2
:1014B00005786D11AD0005F1E025C5F8004109E0A2
:1014C000047804F01F050124AC401C4D0678761109
:1014D00045F8264070BD1A4A0A400243154B1B1FAF
:1014E0001A60704739B1134A121D12680243114B3A
:1014F0001B1D1A6006E00F4A121D126882430D4B35
:101500001B1D1A607047042808D14FF0E0210969BB
:1015100041F004014FF0E022116107E04FF0E021BB
:10152000096921F004014FF0E022116170470000C9
:101530000000FA050CED00E000E400E080E100E0CE
:1015400080FFFF1F10B50446CC48844208D101211A
:10155000042000F02DFB0021042000F029FB46E0D0
:10156000C748844208D10121082000F021FB002156
:10157000082000F01DFB3AE0C248844208D1012156
:10158000102000F015FB0021102000F011FB2EE0D0
:10159000BD48844208D10121202000F009FB002130
:1015A000202000F005FB22E0B848844208D1012148
:1015B000402000F0FDFA0021402000F0F9FA16E08A
:1015C000B348844208D10121802000F0F1FA0021C3
:1015D000802000F0EDFA0AE0AE48844207D10121F4
:1015E000801500F0E5FA0021A01500F0E1FA10BD29
:1015F00010B50121084600F0DBFA0021012000F0BF
:10160000D7FA10BD2DE9F041024600250026002042
:1016100000230024002791F803C00CF00F0591F877
:1016200003C00CF0100CBCF1000F03D091F802C005
:101630004CEA050591F800C0BCF1000F31D01468E8
:1016400000202BE04FF0010C0CFA00F3B1F800C0C1
:101650000CEA03069E4220D183004FF00F0C0CFAD7
:1016600003F7BC4305FA03FC4CEA040491F803C0F9
:10167000BCF1280F06D14FF0010C0CFA00FCC2F8A7
:1016800014C00AE091F803C0BCF1480F05D14FF037
:10169000010C0CFA00FCC2F810C0401C0828D1D381
:1016A0001460B1F800C0BCF1FF0F34DD54680020B5
:1016B0002EE000F1080C4FF0010808FA0CF3B1F825
:1016C00000C00CEA03069E4221D183004FF00F0CAC
:1016D0000CFA03F7BC4305FA03FC4CEA040491F846
:1016E00003C0BCF1280F05D100F1080C08FA0CF872
:1016F000C2F8148091F803C0BCF1480F07D100F183
:10170000080C4FF0010808FA0CF8C2F81080401CD1
:101710000828CED35460BDE8F0814FF6FF710180F8
:10172000022181700421C170704702460020936835
:101730000B400BB1012000E0002070470146886893
:1017400080B2704702460020D3680B400BB10120E5
:1017500000E0002070470146C86880B27047016110
:101760007047416170470AB1016100E04161704713
:10177000C16070474FF480320A43826181618261A7
:1017800082698269704702460020434B18684FF611
:101790008073184040EA021008433F4B18607047BE
:1017A0003E49C8617047F0B50A4600230024002175
:1017B000002500F00046B6F1004F02D1364EF16927
:1017C00001E0354E7168C0F3034583B200F4401662
:1017D000B6F5401F08D121F070612F4E766826F0D3
:1017E00070662D4F7E6012E000F48016B6F5801F03
:1017F00006D1032606FA05F4A14341F0706106E024
:10180000460D360103FA06F6B14341F0706122B18C
:10181000460D360103FA06F6314300F00046B6F1F4
:10182000004F02D11C4EF16101E01B4E7160F0BD12
:1018300030B500228B071C0F0F2303FA04F2164B5E
:1018400008338C1053F824309343134C08348D1014
:1018500044F8253023468C1053F824308C07240F8D
:1018600000FA04F423430C4C08348D1044F825305E
:1018700030BD0A49DC3108607047000000080140B3
:10188000000C01400010014000140140001801400C
:10189000001C0140002001400000014000002042E7
:1018A000DF48006840F00100DD49086008464068F4
:1018B000DC490840DA49486008460068DA490840CF
:1018C000D74908600846006820F480200860084670
:1018D000406820F4FE0048604FF41F0088607047A5
:1018E000CF49096821F48031CD4A11601146096859
:1018F00021F480211160B0F5803F03D0B0F5802F36
:101900000ED106E0C649096841F48031C44A11602D
:1019100007E0C349096841F4A021C14A116000E011
:1019200000BF00BF704710B5014600220023002011
:101930004A11012A02D1BA4C236806E0022A02D1D8
:10194000B74C236A01E0B64C636A01F01F02012420
:1019500094401C400CB1012000E0002010BD38B5BF
:10196000002000900024002500BF3120FFF7DBFF9E
:1019700005460098401C00900098B0F5A06F01D07B
:10198000002DF2D03120FFF7CEFF08B1012400E096
:101990000024204638BD01460020A14A106820F0EE
:1019A000F80040EAC10010607047A0490860704725
:1019B000024600209A4B586820F47C1042EA01034A
:1019C0001843974B5860704798490866704701461E
:1019D0000020934A506820F003000843506070478D
:1019E0008F48406800F00C007047014600208C4A88
:1019F000506820F0F0000843506070470146002016
:101A0000874A506820F4E060084350607047014600
:101A10000020834A506820F4605040EAC1005060C2
:101A2000704729B17E4A527A02437D4B5A7204E0D4
:101A30007B4A527A82437A4B5A7270477B49D8313B
:101A40000860704701460020754A506820F4404005
:101A50000843506070470021714A20321170704A6B
:101A600082F82010012802D004280AD104E00121C4
:101A70006B4A2032117005E00521694A203211704D
:101A800000E000BF00BF70476949086070476449C3
:101A9000096A0143624A1162704765494439086026
:101AA000704730B500210022002400235C4D6D6892
:101AB00005F00C0121B1042905D0082923D105E046
:101AC0005C4D056022E05B4D05601FE0544D6D6884
:101AD00005F47012524D6D6805F48034022505EB53
:101AE00092421CB9544D554305600BE04C4D6D6856
:101AF00005F400351DB1504D5543056002E04D4DD4
:101B00005543056002E04B4D056000BF00BF444DEA
:101B10006D6805F0F0010909484D6B5C0568DD4012
:101B200045603F4D6D6805F4E061090A434D6B5C0B
:101B30004568DD4085603A4D6D6805F46051C90A1D
:101B40003E4D6B5C4568DD40C560354D6D6805F404
:101B50004041890B3A4D6B5CC568B5FBF3F50561F7
:101B600030BD29B12E4A526902432D4B5A6104E01F
:101B70002B4A526982432A4B5A61704729B1284A3D
:101B800092690243264B9A6104E0254A9269824396
:101B9000234B9A61704729B1214AD2690243204BF5
:101BA000DA6104E01E4AD26982431D4BDA61704754
:101BB00029B11B4AD2680243194BDA6004E0184A83
:101BC000D2688243164BDA60704729B1144A126911
:101BD0000243134B1A6104E0114A12698243104B0D
:101BE0001A61704712494039086070470F49C8644C
:101BF00070470B49C87170470948406A40F08070CF
:101C000007494862704701460020054A92680A4029
:101C10000AB1012000E00020704701498872704736
:101C2000001002400000FFF8FFFFF6FE00004242F5
:101C30008004424200127A0000093D005C1400203A
:101C40006C14002010B50446F748844209D10121E4
:101C50008803FFF7ADFF00214FF48040FFF7A8FF96
:101C600032E0F248844209D101214804FFF7ADFF78
:101C700000214FF40030FFF7A8FF25E0EC48844234
:101C800009D101218804FFF7A0FF00214FF4802033
:101C9000FFF79BFF18E0E748844209D10121C804FF
:101CA000FFF793FF00214FF40020FFF78EFF0BE0BA
:101CB000E148844208D101210805FFF786FF002191
:101CC0004FF48010FFF781FF10BD2DE9F04786B07B
:101CD00005460E460024A24600BFA1460027B08953
:101CE00000B100BF2F462C8A4CF6FF700440F088EC
:101CF00004432C82AC894EF6F3100440B08831893D
:101D00000843718908430443AC81AC8A4FF6FF4015
:101D10000440B0890443AC8201A8FFF7C2FEC24868
:101D2000874202D1DDF810A001E0DDF80CA0A889FF
:101D300000F4004040B10AEBCA0000EB0A10316821
:101D40004900B0FBF1F807E00AEBCA0000EB0A100B
:101D500031688900B0FBF1F86420B8FBF0F00401B1
:101D60002009642101FB1089A88900F4004040B1DA
:101D7000322000EBC900B0FBF1F000F00700044393
:101D800008E0322000EB09106421B0FBF1F000F014
:101D90000F0004432C8106B0BDE8F0874FF41651C4
:101DA000016000218180C18001810C2141810021DD
:101DB0008181704710B502460020108A4FF2FF0360
:101DC00018400B884C8823438C882343CC882343BA
:101DD0001843108210BD0021018041808180C180A4
:101DE000704721B1828942F40052828104E08289E5
:101DF0004DF6FF731A4082817047F0B50346002408
:101E000000260025002040F66A17B94200D100BF25
:101E10001846C1F3421401F01F06012707FA06F520
:101E2000012C01D10C3004E0022C01D1103000E073
:101E300014301AB107682F43076002E00768AF4308
:101E40000760F0BD1AB1838A0B43838202E0838A64
:101E50008B4383827047028A4FF6F0731A400282E6
:101E6000028A0A430282704782894FF2FF731A4046
:101E7000828182890A438281704721B1828942F03E
:101E80000202828104E082894FF6FD731A4082814A
:101E90007047028A4FF6DF731A400282028A0A43B1
:101EA0000282704721B1028A42F48042028204E039
:101EB000028A4BF6FF731A400282704702460020E6
:101EC000B1F5007F00D100BF13880B400BB101209A
:101ED00000E00020704730B504460D46C5F3080009
:101EE000A08000BF40212046FFF7E8FF0128F9D17C
:101EF00030BD01468888C0F308007047818941F0F1
:101F0000010181817047028BD2B20283028B42EAC7
:101F1000012202837047028B02F47F420283028B0C
:101F20000A430283704721B1828A42F020028282F2
:101F300004E0828A4FF6DF731A408282704721B133
:101F4000828A42F01002828204E0828A4FF6EF73A6
:101F50001A408282704721B1828A42F0080282824E
:101F600004E0828A4FF6F7731A408282704721B1EB
:101F7000828942F40042828103E08289C2F30E0228
:101F80008281704721B1828A42F40062828204E039
:101F9000828A4FF2FF731A4082827047828A4FF61C
:101FA000FB731A408282828A0A438282704721B17F
:101FB000828A42F00202828204E0828A4FF6FD7336
:101FC0001A408282704701F40072B2F5007F00D19E
:101FD00000BFCA430280704770B502460024002348
:101FE0000025002040F66A16B14200D100BFC1F3BF
:101FF000421501F01F03012606FA03F3012D02D159
:102000009689334006E0022D02D1168A334001E062
:10201000968A33400C12012606FA04F416883440DE
:1020200063B15CB101200AE0003801400044004087
:1020300000480040004C004000500040002070BDAF
:1020400010B50022002340F66A14A14200D100BF5F
:102050000A1201249440A3B2DC43048010BD0000A6
:1020600010B50446FE48844208D10121C014FFF790
:102070009FFD0021E014FFF79BFDC4E0B4F1804F09
:1020800008D101210846FFF7A0FD00210120FFF73C
:102090009CFDB8E0F348844208D101210220FFF7FB
:1020A00094FD00210220FFF790FDACE0EE48844251
:1020B00008D101210420FFF788FD00210420FFF74B
:1020C00084FDA0E0E948844208D101210820FFF7FF
:1020D0007CFD00210820FFF778FD94E0E44884426D
:1020E00008D101211020FFF770FD00211020FFF71B
:1020F0006CFD88E0DF48844208D101212020FFF7F1
:1021000064FD00212020FFF760FD7CE0DA48844276
:1021100008D101214014FFF74BFD00216014FFF7A7
:1021200047FD70E0D548844209D10121C804FFF77A
:102130003FFD00214FF40020FFF73AFD63E0D04857
:10214000844209D101210805FFF732FD00214FF437
:102150008010FFF72DFD56E0CA48844209D10121C5
:102160004805FFF725FD00214FF40010FFF720FD83
:1021700049E0C548844208D101214020FFF725FDF0
:1021800000214020FFF721FD3DE0C048844208D1F6
:1021900001218020FFF719FD00218020FFF715FDA8
:1021A00031E0BB48844208D101218015FFF70DFDC5
:1021B0000021A015FFF709FD25E0B648844209D1AA
:1021C00001210804FFF7F4FC00214FF48030FFF7F1
:1021D000EFFC18E0B048844209D101214804FFF720
:1021E000E7FC00214FF40030FFF7E2FC0BE0AB48C6
:1021F000844208D101218804FFF7DAFC00214FF462
:102200008020FFF7D5FC10BD00220288944B984235
:102210000ED0994B98420BD0B0F1804F08D0914B23
:10222000984205D0904B984202D0904B984204D1EE
:102230004FF68F731A404B881A438D4B984207D044
:102240008C4B984204D04FF6FF431A40CB881A4378
:1022500002808B8883850B880385814B98420BD045
:10226000854B984208D08B4B984205D08A4B9842B8
:1022700002D08A4B984201D10B7A038601238382D4
:10228000704770B5002400220023058C4FF6FE76BF
:1022900035400584028C8388048B4FF68F752C4063
:1022A000B51E2C400D882C43751E2A400D892A43EB
:1022B0004D882A436A4DA8420BD06F4DA84208D0E2
:1022C000744DA84205D0744DA84202D0734DA84267
:1022D00013D14FF6F7752A404D892A434FF6FB7507
:1022E0002A408D882A434FF6FF652B404FF6FF5555
:1022F0002B408D892B43CD892B4383800483CD884C
:102300008586028470BD70B5002400220023058CF0
:102310004FF6EF7635400584028C8388048B48F6AF
:10232000FF752C404FF6FF452C400D884FF6FF7689
:1023300006EA05252C434FF6DF752A400D8906EA8B
:1023400005152A434D8806EA05152A43444DA8423F
:1023500002D0494DA8421DD14FF67F752A404D89C4
:102360004FF6FF7606EA05152A434FF6BF752A4059
:102370008D8806EA05152A434FF6FF352B404FF2AC
:10238000FF752B408D8906EA85052B43CD8906EA2A
:1023900085052B4383800483CD880587028470BD27
:1023A00070B5002400220023058C4FF6FF663540EF
:1023B0000584028C8388848B4FF68F752C404FF6F2
:1023C000FC752C400D882C434FF6FF552A400D8993
:1023D0004FF6FF7606EA05252A434D8806EA0525CD
:1023E0002A431F4DA84202D0234DA8421DD14FF2CF
:1023F000FF752A404D894FF6FF7606EA05252A43E8
:102400004FF6FF352A408D8806EA05252A434EF609
:10241000FF752B404DF6FF752B408D8906EA05159B
:102420002B43CD8906EA05152B4383808483CD8811
:102430008587028470BD70B5002200230024058CBE
:102440004EF6FF7635400584038C8488828B48F6EF
:10245000FF752A404FF6FF452A400D8820E0000016
:10246000002C01400004004000080040000C004027
:10247000001000400014004000340140004C0140B6
:10248000005001400054014000180040001C004072
:10249000002000400040014000440140004801404D
:1024A0004FF6FF7606EA05252A434DF6FF752B40C9
:1024B0000D8906EA05352B434D8806EA05352B4381
:1024C000FA4DA84202D0FA4DA84208D14BF6FF754A
:1024D0002C408D894FF6FF7606EA85152C438480C3
:1024E0008283CD88A0F84050038470BD828B4FF268
:1024F000FF331A408283828B4FF6FF7303EA012376
:102500001A4382837047F0B50C461546002200211D
:102510000026078C4EF6FF7C07EA0C070784828BA7
:10252000018C4FF6FF7707EA043640F6FF473A4042
:102530004FF6FF7707EA05273A434FF6FF7707EA9A
:1025400003373A43D94FB8420ED0D94FB8420BD0D7
:10255000B0F1804F08D0D74FB84205D0D64FB8421F
:1025600002D0D64FB84206D14DF6FF77394046F437
:102570008057394305E047F6FF57394044F4805708
:10258000394382830184F0BD828B4FF6F3731A4086
:102590008283828B0A4382837047F0B50C461546CE
:1025A000002200210026078C4FF6FF6C07EA0C077B
:1025B0000784828B018C4FF6FF7707EA04264FF6DB
:1025C0000C773A404FF6FF7707EA03172F433A4359
:1025D000B64FB8420ED0B64FB8420BD0B0F1804FD4
:1025E00008D0B44FB84205D0B34FB84202D0B34F71
:1025F000B84206D14FF6FF57394046F48077394349
:1026000005E04FF2FF57394044F480773943828325
:102610000184F0BD028B4FF2FF331A400283028B1C
:102620004FF6FF7303EA01231A4302837047F0B5A4
:102630000C461546002200210026078C4FF6EF7C41
:1026400007EA0C070784028B018C4FF6FF7707EA35
:10265000041640F6FF473A404FF6FF7707EA033784
:102660003A434FF6FF7707EA05273A438F4FB842C0
:102670000ED08F4FB8420BD0B0F1804F08D08D4FA5
:10268000B84205D08C4FB84202D08C4FB84206D128
:102690004FF6DF77394046F01007394305E04FF633
:1026A0005F77394044F01007394302830184F0BD5D
:1026B000028B4FF6F3731A400283028B0A430283A4
:1026C0007047F0B50C46154600220021068C4FF6E7
:1026D000FE773E400684028B018C4FF60C7632402A
:1026E0007E1C06EA03162E433243704EB0420ED0D3
:1026F0006F4EB0420BD0B0F1804F08D06D4EB0425B
:1027000005D06D4EB04202D06C4EB04206D14FF6AD
:10271000FD76314044F00106314305E04FF6F57691
:10272000314044F00106314302830184F0BD70B5AD
:1027300005460C465D4885420ED05D4885420BD06B
:10274000B5F1804F08D05B48854205D05A48854294
:1027500002D05A48854200D100E000BF208850B91D
:102760002389A28861882846FFF7ABFFE1882846C5
:10277000FFF79EFF25E0208804280AD12389A2883C
:1027800061882846FFF753FFE1882846FFF742FF9C
:1027900017E0208808280AD12389A2886188284662
:1027A000FFF7FBFEE1882846FFF7EEFE09E02389EC
:1027B000A28861882846FFF7A6FEE1882846FFF731
:1027C00095FE70BD2DE9F04105460C460026012717
:1027D000608808B9022600E00026A088012801D1FF
:1027E000022700E001272088A0B92389A2886188F8
:1027F0002846FFF766FFE1882846FFF759FF23893F
:102800003A4631462846FFF712FFE1882846FFF78F
:1028100001FF13E02389A28861882846FFF707FF9C
:10282000E1882846FFF7F6FE23893A4631462846D6
:10283000FFF747FFE1882846FFF73AFFBDE8F08140
:102840000A884B881A438B881A43CB881A430B8912
:102850001A434B891A438B891A43A0F844207047C6
:102860004FF6FF71818000210180C180418001729B
:1028700070470021018041808180C18001814181B8
:102880008181C181704700210180418001218180C7
:102890000021C18001817047002101804180818039
:1028A000C18001814181818170470000002C01407D
:1028B000003401400004004000080040000C0040CB
:1028C00021B1028842F00102028004E002884FF642
:1028D000FE731A400280704731B1B0F8442042F4D0
:1028E0000042A0F8442005E0B0F84420C2F30E02F4
:1028F000A0F8442070471AB183890B43838102E01A
:1029000083898B43838170478182704741EA020348
:10291000A0F8483070471AB183890B43838102E0E5
:1029200083898B438381704701894FF6F872114088
:10293000018170470A46002101894FF68F731940C3
:1029400011430181704730B504460D4629462046A3
:10295000FFF7F0FF208940F00700208130BD2DE90E
:10296000F04104460D4616461F46602D06D13B46F3
:10297000012231462046FFF75AFE05E03B46012280
:1029800031462046FFF79DFE29462046FFF7D2FF3D
:10299000208940F007002081BDE8F08130B50C4669
:1029A00000210189C9B24FF6FF7505EA03251543D9
:1029B00025432943018130BD2DE9F04105460E46EE
:1029C00017469846002443463A4631462846FFF7C4
:1029D000E5FF2C894FF6F870044044F007044FF6E9
:1029E0008F70044044F070042C81BDE8F081F0B594
:1029F00004460D4616461F463B46324629462046AB
:102A0000FFF7CCFF208940F480402081F0BD018594
:102A1000828270470A46002101884FF68F73194061
:102A2000114301807047F0B50C4615461E46002143
:102A3000002200230189028B038C4FF6F87739407E
:102A400021434FF6FC473A4040F201173A434FF614
:102A5000DD773B404FF6FF7707EA06172F433B43EE
:102A6000018102830384F0BD0A460021018B4FF6E9
:102A70008F7319401143018370470A460021018B6F
:102A800048F6FF7319404FF6FF7303EA0223194318
:102A9000018370470A460021818B4FF68F731940DE
:102AA0001143818370470A460021818B48F6FF73EA
:102AB00019404FF6FF7303EA0223194381837047DD
:102AC00021B1028842F08002028004E002884FF6C1
:102AD0007F731A400280704721B1828842F004025D
:102AE000828004E082884FF6FB731A408280704730
:102AF00021B1828842F00802828004E082884FF689
:102B0000F7731A408280704721B1828842F0010237
:102B1000828004E082884FF6FE731A4082807047FC
:102B20000A460021018B4FF6F773194011430183C8
:102B300070470A460021018B4FF2FF7319404FF690
:102B4000FF7303EA02231943018370470A460021F9
:102B5000818B4FF6F77319401143818370470A4602
:102B60000021818B4FF2FF7319404FF6FF7303EA88
:102B700002231943818370470A460021018B4FF6D7
:102B8000FB7319401143018370470A460021018BF2
:102B90004FF6FF3319404FF6FF7303EA0223194340
:102BA000018370470A460021818B4FF6FB73194061
:102BB0001143818370470A460021818B4FF6FF3312
:102BC00019404FF6FF7303EA0223194381837047CC
:102BD0000A460021018B4FF67F7319401143018390
:102BE00070470A460021018BC1F30E014FF6FF73B7
:102BF00003EA02231943018370470A460021818BAF
:102C00004FF67F7319401143818370470A460021B4
:102C1000818BC1F30E014FF6FF7303EA02231943C0
:102C2000818370470A460021018C4FF6FD731940DD
:102C30001143018470470A460021018C4FF6F77357
:102C400019401143018470470A460021018C4FF658
:102C5000DF7319404FF6FF7303EA0213194301842F
:102C600070470A460021018C4FF67F7319404FF6DA
:102C7000FF7303EA02131943018470470A460021D7
:102C8000018C4FF6FF5319404FF6FF7303EA0223FE
:102C90001943018470470A460021018C4FF2FF73EB
:102CA00019404FF6FF7303EA02231943018470476A
:102CB0000A460021018C4DF6FF7319404FF6FF7351
:102CC00003EA023319430184704730B5002301241D
:102CD0008C40A3B2048C9C430484048C02FA01F55A
:102CE000ADB22C43048430BD30B5002304248C40A5
:102CF000A3B2048C9C430484048C02FA01F5ADB2A7
:102D00002C43048430BD70B50346002000241846CF
:102D1000183001258D40ACB21D8CA5431D8409B12E
:102D2000082909D100EB6100056825F070050560F0
:102D30000568154305600EE00D1FC5F34E052844D8
:102D4000056825F4E045056005684FF6FF7606EA5C
:102D500002263543056070BD21B1028842F00202AF
:102D6000028004E002884FF6FD731A40028070472B
:102D700021B1028842F00402028004E002884FF68A
:102D8000FB731A400280704721B1828842F08002B2
:102D9000828004E082884FF67F731A4082807047F9
:102DA00002884FF6F7731A40028002880A430280B5
:102DB000704782884FF68F731A40828082880A4358
:102DC0008280704702894FF6F8731A4002810289A7
:102DD0000A430281704702894FF67F731A400281CD
:102DE00002890A4302817047818470478185704758
:102DF000818670470187704781877047A0F840102F
:102E0000704702884FF6FF431A40028002880A4347
:102E1000028070470146888E70470146088F7047D0
:102E20000146888F70470146B1F84000704701465F
:102E3000888C70470146088D704702460020138A2F
:102E40000B400BB1012000E000207047CA43028212
:102E5000704730B50246002000230024158A05EA99
:102E60000103958905EA010413B10CB1012000E0CA
:102E7000002030BDCA4302827047000010B50446EE
:102E8000FA48844208D101214015FEF791FE002145
:102E90006015FEF78DFE17E0F548844208D1012148
:102EA0000015FEF785FE00212015FEF781FE0BE0E0
:102EB000F048844208D10121C803FEF779FE0021C1
:102EC0004FF40040FEF774FE10BD30B502460020FE
:102ED00000235068E84C20400D790C6844EA052432
:102EE000204350609068E54C2040D1E902542C43C7
:102EF0004D7944EA450420439060D06A20F4700084
:102F00000C7C641EE4B2234340EA0350D06230BD1F
:102F100000210160017141718160C1600121017472
:102F2000704721B1826842F00102826003E082684A
:102F300022F001028260704721B1826842F48072FF
:102F4000826003E0826822F480728260704710B56C
:102F50000023CBB21AB144681C43446002E04468C9
:102F60009C43446010BD816841F008018160704756
:102F7000014600208A6802F008020AB1012000E040
:102F800000207047816841F004018160704701466C
:102F900000208A6802F004020AB1012000E000204B
:102FA000704721B1826842F4A002826003E0826827
:102FB00022F4A00282607047014600208A6802F471
:102FC00080020AB1012000E00020704710B50A46D7
:102FD00000210023416821F46041531E41EA43313E
:102FE000416010BD21B1426842F40062426003E0DA
:102FF000426822F4006242607047F0B504460D4614
:1030000000200021092D11DDE068A5F10A0606EB7C
:103010004607072606FA07F18843A5F10A0606EBDC
:10302000460603FA06F10843E0600CE0206905EB70
:103030004507072606FA07F1884305EB450603FA1C
:1030400006F108432061072A0FDA606B561E06EB73
:1030500086071F2606FA07F18843561E06EB8606EA
:1030600005FA06F10843606322E00D2A0FDA206BAF
:10307000D61F06EB86071F2606FA07F18843D61FE0
:1030800006EB860605FA06F10843206310E0E06AC5
:10309000A2F10D0606EB86071F2606FA07F1884304
:1030A000A2F10D0606EB860605FA06F10843E0627A
:1030B000F0BD21B1826842F48012826003E0826830
:1030C00022F48012826070470146C86C80B270475B
:1030D00066484C300068704721B1426842F4806213
:1030E000426003E0426822F480624260704721B18E
:1030F000426842F48052426003E0426822F4805207
:10310000426070470A460021816821F4E041114382
:103110008160704721B1826842F40042826003E01E
:10312000826822F400428260704721B1826842F4D2
:103130000212826003E0826822F402128260704709
:10314000014600208A6802F400120AB1012000E062
:1031500000207047F0B504461546002000220026E6
:10316000092911DDE068A1F10A0707EB470C0727E1
:1031700007FA0CF29043A1F10A0707EB470703FA9D
:1031800007F21043E0600CE0206901EB410C0727D7
:1031900007FA0CF2904301EB410703FA07F21043E0
:1031A0002061A06BC0F30156EF1C06F1010CA7EBE8
:1031B0000C0707EB870C1F2707FA0CF29043EF1C54
:1031C00006F1010CA7EB0C0707EB870701FA07F2E2
:1031D0001043A063F0BD10B50A4600210023816BA7
:1031E00021F44011531E41EA0351816310BD08B51B
:1031F000002300930090009B0B440093009B1A60F7
:1032000008BD08B5024600200090009201F1280098
:10321000009B184400900098006880B208BD0A46E0
:1032200000214168164B19401143416070474162CB
:10323000826270470A460021416821F01F01114354
:103240004160704740B109490831096841F4000103
:10325000064A0832116007E004490831096821F480
:103260000001024A0832116070470000002401404A
:1032700000280140003C0140FFFEF0FFFDF7F1FF98
:10328000FFFD3FFF0246002013680B400BB10120F9
:1032900000E000207047CA430260704770B50246E4
:1032A0000020002300240B125568CEB205EA060464
:1032B00015681D4015B10CB1012000E0002070BD63
:1032C00000220A12D34303607047000001684FF6E2
:1032D000FE72114001600021016041608160C160A7
:1032E0008D49884208D18C490839496841F00F015D
:1032F000894A083A51608AE087491431884208D1E6
:1033000085490839496841F0F001834A083A51601B
:103310007DE081492831884208D17F4908394968D0
:1033200041F470617C4A083A516070E07A493C315E
:10333000884208D178490839496841F47041764A91
:10334000083A516063E074495031884208D17249AB
:103350000839496841F470216F4A083A516056E0D3
:103360006D496431884208D16B490839496841F494
:103370007001694A083A516049E0674978318842EA
:1033800008D165490839496841F07061624A083AD4
:1033900051603CE06149884206D1011F096841F053
:1033A0000F01021F116032E05C491431884208D1DC
:1033B0005A49091F096841F0F001584A121F11606B
:1033C00025E056492831884208D15449091F096827
:1033D00041F47061514A121F116018E04F493C31AD
:1033E000884208D14D49091F096841F470414B4A90
:1033F000121F11600BE049495031884207D14749FB
:10340000091F096841F47021444A121F1160704776
:1034100010B50022026847F6F0739A430C6A8B6875
:1034200023430C6923434C6923438C692343CC69B0
:1034300023434C6A23438C6A23431A430260CB68BC
:1034400043600B6883604B68C36010BD002101605E
:1034500041608160C160016141618161C16101625E
:1034600041628162704721B1026842F0010202604C
:1034700004E002684FF6FE731A40026070471AB10A
:1034800003680B43036002E003688B4303607047EB
:10349000416070470146486880B27047014600208D
:1034A000002201F080531BB11C4B083B1A6802E05C
:1034B000194B083B1A6802EA01030BB1012000E036
:1034C0000020704700F0805119B11449091F0860AD
:1034D00002E0114908394860704701460020002287
:1034E00001F080531BB10D4B083B1A6802E00A4BF8
:1034F000083B1A6802EA01030BB1012000E000203A
:10350000704700F0805119B10449091F086002E0BA
:103510000149083948607047080002400804024029
:103520002DE9F05F0546002092469B4688460646F8
:10353000814640241BE0284641464746224600F08B
:1035400041F853465A46C01A914110D311461846C5
:10355000224600F016F82D1A67EB01084F46224666
:103560000120002100F00DF817EB00094E41201E4C
:10357000A4F10104DFDC484631462A464346BDE853
:10358000F09F202A04DB203A00FA02F10020704765
:103590009140C2F1200320FA03F319439040704791
:1035A000064C074D06E0E06840F0010394E8070090
:1035B00098471034AC42F6D3FCF7BEFD9452000895
:1035C000B4520008202A04DB203A21FA02F000213C
:1035D000704721FA02F3D040C2F120029140084323
:1035E0001946704770B58C1810F8015B15F0070389
:1035F00001D110F8013B2A1106D110F8012B03E08C
:1036000010F8016B01F8016B5B1EF9D12B0705D493
:103610000023521E0DD401F8013BFAE710F8013BDC
:10362000CB1A921C03E013F8015B01F8015B521EF8
:10363000F9D5A142D8D3002070BD00000FB4054BCE
:1036400010B503A9044A029800F018F810BC5DF800
:1036500014FB0000ED0600087014002002E008C80A
:10366000121F08C1002AFAD170477047002001E0FC
:1036700001C1121F002AFBD1704700002DE9FF4F46
:103680008DB00F460546002606E025280BD0DDE963
:103690000F1290476D1C761C28780028F5D111B0C8
:1036A0003046BDE8F08F0024A246A1460122E94938
:1036B00000E0044315F8013F203B02FA03F0084202
:1036C000F7D128782A2810D06FF02F022878A0F19F
:1036D0003001092914D80AEB8A0102EB410144F0B8
:1036E000020400EB010A6D1CF0E701CF5FEA000A5B
:1036F00003D544F40054CAF1000A44F002046D1CDE
:1037000028782E2817D115F8010F44F004042A2830
:103710000ED06FF02F022878A0F1300109290AD8C5
:1037200009EB890102EB410100EB01096D1CF2E795
:1037300057F8049B6D1C28786C280FD006DC4C28A9
:1037400017D068280DD06A2814D104E0742810D04E
:103750007A280FD10DE044F400140AE044F48014F8
:1037600001E044F440146978814202D104F58014E8
:103770006D1C6D1C28786E281ED00CDC632830D0A0
:1037800004DC00288BD0582811D19FE0642867D032
:1037900069280CD164E073282DD004DC6F2872D026
:1037A000702804D194E075286ED078286DD0DDE9BA
:1037B0000F129047761C4BE1C4F30250022806D04A
:1037C000032809D0042801CF09D0066040E101CFC9
:1037D000F117C0E900613BE101CF068038E10670D6
:1037E00036E117F8040B8DF8000000208DF8010079
:1037F000EB46012003E057F804BB4FF0FF306107B0
:103800004FF0000102D40DE008F10101884649455E
:103810000FDA8045F8DB1BF808100029F4D108E026
:1038200008F1010188468142FADB1BF808100029E3
:10383000F6D1DDE90F23AAEB08008146214600F00E
:1038400031F9304400EB080604E0DDE90F121BF803
:10385000010B9047B8F10108F7D221464846F2E043
:103860000A21C4F302524FF0000B0891022A04D03F
:1038700001CFC117032A09D00AE0FF1D27F007076F
:10388000F7E8020108E02CE01EE01FE000B2C117DB
:10389000042A01D140B2C117021E71F1000206DAFA
:1038A0000023D0EB030063EB01012D2202E022058F
:1038B00004D52B228DF82420012203E0E20701D059
:1038C0002022F7E7904653E00A210BE0102109E09F
:1038D00010214FF0000B44F004044FF00809089148
:1038E00003E008214FF0000B0891C4F30252022AB2
:1038F00004D001CF0021032A06D006E0FF1D27F0E7
:103900000707F7E8020103E080B2042A00D1C0B241
:103910004FF0000822072BD52A78702A07D0DDF84F
:1039200020C08CF0100C5CEA0B0C05D00EE040229D
:103930008DF82420012208E050EA010306D030234C
:103940008DF824308DF8252002229046089B83F0C4
:10395000080353EA0B030BD150EA010201D16207BD
:1039600006D530228DF824204FF00108A9F1010975
:103970002A78582A04D038A20B9208AA0A920BE09F
:103980003AA2F9E75B46089AFFF7CAFD0B9B9B5CDE
:103990000A9A521E0A92137050EA0102F2D10A9852
:1039A000ADEB000000F1200B600702D524F4803459
:1039B00001E04FF00109D94502DDA9EB0B0000E061
:1039C000002000EB0B0141440890AAEB010AE00340
:1039D00006D4DDE90F232146504600F063F8064483
:1039E0004FF0000908E009A911F80900DDE90F12FC
:1039F000904709F10109761CC145F4DBE0030CD5C1
:103A0000DDE90F232146504600F04CF8064404E05F
:103A1000DDE90F1230209047761C0899481E089067
:103A20000029F5DC08E00A980A990078491C0A91F7
:103A3000DDE90F129047761CBBF10001ABF1010BE1
:103A4000F1DC21465046DDE90F2300F019F8064469
:103A50006D1C21E609280100303132333435363708
:103A600038396162636465660000000030313233CA
:103A7000343536373839414243444546000000006A
:103A80002DE9F041044600251E461746880404D45B
:103A900005E039462020B0476D1C641EF9D5284644
:103AA000BDE8F0812DE9F041044600251E46904610
:103AB000C80301D5302700E02027880404D505E09D
:103AC00041463846B0476D1C641EF9D52846BDE80E
:103AD000F081000000000000000000000000000075
:103AE00000003F40000000000000000030004000E7
:103AF00030004000000009000BC03D000BC03D003D
:103B0000090018C024407FE02240318000001800E6
:103B100024C01B000D803240018003801C402740E0
:103B20001C80074000401000600000000000000002
:103B300000000000000000001F8020404020000026
:103B4000402020401F8000000000090006001F8068
:103B5000060009000000040004003F800400040087
:103B600000000010006000000000000000000400E1
:103B700004000400040004000000000000400000F5
:103B8000000000000000002001C0060038004000D6
:103B900000001F802040204020401F8000000000C7
:103BA00010403FC000400000000018C021402240EB
:103BB00024401840000010802040244024401B80F6
:103BC000000002000D0011003FC0014000003C80D9
:103BD000244024402440238000001F8024402440AF
:103BE0003440038000003000200027C0380020004F
:103BF00000001B802440244024401B8000001C0047
:103C000022C0224022401F80000000000000084027
:103C10000000000000000000000004600000000040
:103C20000000000004000A0011002080404009004C
:103C30000900090009000900000000004040208040
:103C400011000A000400180020002340240018007E
:103C500000001F802040274029401F4000000040F6
:103C600007C039000F0001C0004020403FC0244081
:103C700024401B8000001F802040204020403080D6
:103C8000000020403FC0204020401F800000204016
:103C90003FC024402E4030C0000020403FC02440A0
:103CA0002E00300000000F001080204022403380A2
:103CB000020020403FC0040004003FC020402040DC
:103CC00020403FC0204020400000006020202020F5
:103CD0003FC02000200020403FC024400B0030C0E7
:103CE000204020403FC020400040004000C03FC076
:103CF0003C0003C03C003FC0000020403FC00C40DF
:103D000023003FC020001F802040204020401F8013
:103D1000000020403FC024402400180000001F8005
:103D20002140214020E01FA0000020403FC024404F
:103D3000260019C0004018C0244024402240318091
:103D40000000300020403FC0204030000000200034
:103D50003F80004000403F80200020003E0001C026
:103D6000070038002000380007C03C0007C03800BA
:103D70000000204039C0060039C02040000020006B
:103D8000384007C0384020000000304021C02640A5
:103D9000384020C00000000000007FE040204020AC
:103DA0000000000070000C000380004000000000D4
:103DB000402040207FE00000000000002000400084
:103DC0002000000000000010001000100010001083
:103DD0000010000000004000000000000000000093
:103DE00002800540054003C0004020003FC0044061
:103DF00004400380000000000380044004400640AB
:103E0000000000000380044024403FC00040000048
:103E100003800540054003400000000004401FC02F
:103E2000244024402000000002E0055005500650C8
:103E3000042020403FC00440040003C000400000B4
:103E4000044027C0004000000000001000100410D3
:103E500027E00000000020403FC00140070004C0F0
:103E60000440204020403FC000400040000007C008
:103E7000040007C0040003C00000044007C0044061
:103E8000040003C00040000003800440044003809D
:103E90000000041007F004500440038000000000FC
:103EA00003800440045007F00010044007C00240A3
:103EB000040004000000000006400540054004C066
:103EC0000000000004001F800440004000000400C7
:103ED00007800040044007C000400400070004C001
:103EE000018006000400060001C0070001C00600B2
:103EF0000000044006C0010006C004400000041099
:103F0000071004E00180060004000000044005C022
:103F10000640044000000000000004007BE0402058
:103F20000000000000000000FFF0000000000000A2
:103F300040207BE0040000000000400080004000C2
:103F400020002000400000000000000000000000F1
:103F50000000000000000000000000001FCC000C6A
:103F600000000000000000000800300060000800B1
:103F7000300060000000022003FC1E20022003FC31
:103F80001E200220000000000E1811043FFF1084C4
:103F90000C78000000000F0010840F3800C0077874
:103FA00018840078000000780F8410C411240E9843
:103FB00000E40084000808006800700000000000B1
:103FC00000000000000000000000000007E01818DA
:103FD000200440020000000040022004181807E0FE
:103FE0000000000000000240024001800FF001804C
:103FF0000240024000000080008000800FF8008036
:104000000080008000000001000D000E0000000094
:1040100000000000000000000080008000800080A0
:104020000080008000800000000C000C00000000F8
:104030000000000000000000000600180060018081
:10404000060018002000000007F008081004100403
:10405000080807F000000000080408041FFC000422
:1040600000040000000000000E0C10141024104486
:1040700011840E0C000000000C181004110411042F
:1040800012880C700000000000E0032004240824C3
:104090001FFC0024000000001F981084110411046C
:1040A000108810700000000007F008881104110447
:1040B00018880070000000001C00100010FC1300A5
:1040C0001C001000000000000E3811441084108401
:1040D00011440E38000000000700088C1044104402
:1040E000088807F00000000000000000030C030C2B
:1040F00000000000000000000000000101060000B8
:1041000000000000000000000080014002200410B8
:1041100008081004000002200220022002200220D1
:1041200002200220000000001004080804100220F1
:1041300001400080000000000E001200100C106C06
:1041400010800F00000003E00C1813E4142417C4BF
:10415000082807D000000004003C03C41C400740AE
:1041600000E4001C000410041FFC110411041104DD
:104170000E880070000003E00C18100410041004F6
:1041800010081C10000010041FFC10041004100480
:10419000080807F0000010041FFC1104110417C4E4
:1041A00010040818000010041FFC1104110017C0AF
:1041B00010000800000003E00C1810041004104464
:1041C0001C780040000010041FFC10840080008058
:1041D00010841FFC10040000100410041FFC1004C5
:1041E00010040000000000030001100110011FFE78
:1041F00010001000000010041FFC11040380146460
:10420000181C1004000010041FFC1004000400041B
:104210000004000C000010041FFC1F0000FC1F0025
:104220001FFC1004000010041FFC0C04030000E03D
:1042300010181FFC100007F00808100410041004E8
:10424000080807F0000010041FFC10841080108084
:1042500010800F00000007F0081810241024101C14
:10426000080A07F2000010041FFC1104110011C01D
:1042700011300E0C000400000E1C11041084108478
:1042800010441C3800001800100010041FFC10041B
:1042900010001800000010001FF8100400040004B3
:1042A00010041FF8100010001E0011E0001C007028
:1042B00013801C0010001FC0103C00E01F0000E035
:1042C000103C1FC000001004180C163401C001C0BF
:1042D0001634180C100410001C00130400FC130406
:1042E0001C00100000000804101C1064108413044B
:1042F0001C04101800000000000000007FFE4002B7
:10430000400240020000000030000C00038000600A
:10431000001C0003000000004002400240027FFE3B
:1043200000000000000000000000200040004000ED
:104330004000200000000001000100010001000118
:1043400000010001000100004000400020000000CA
:104350000000000000000000009801240144014416
:10436000014400FC000410001FFC0088010401044B
:104370000088007000000000007000880104010443
:10438000010400880000000000700088010401049E
:1043900011081FFC0004000000F80144014401441E
:1043A000014400C800000000010401040FFC1104D6
:1043B000110411001800000000D60129012901296B
:1043C00001C90106000010041FFC00840100010067
:1043D000010400FC000400000104190419FC00049D
:1043E00000040000000000000003000101011901A9
:1043F00019FE0000000010041FFC0024004001B45E
:10440000010C010400000000100410041FFC000453
:10441000000400000000010401FC0104010001FC93
:104420000104010000FC010401FC00840100010002
:10443000010400FC0004000000F801040104010470
:10444000010400F80000010101FF008501040104DE
:104450000088007000000000007000880104010462
:10446000010501FF00010104010401FC00840104B5
:10447000010001800000000000CC0124012401247F
:1044800001240198000000000100010007F8010468
:10449000010400000000010001F800040004000411
:1044A000010801FC0004010001800170000C0010F3
:1044B00001600180010001F0010C003001C00030FA
:1044C000010C01F0010000000104018C0074017076
:1044D000018C01040000010101810171000E00182E
:1044E00001600180010000000184010C01340144DD
:1044F0000184010C00000000000000000000010029
:104500003EFC400240020000000000000000FFFFEF
:104510000000000000000000400240023EFC0100DC
:1045200000000000000000006000800080004000EB
:1045300040002000200000000000000000000000FB
:10454000000000000000000000000000000000006B
:10455000000000000000000000000000000000005B
:104560000000000000000000000F80380FFE380F30
:104570008038000000000000000000000000000083
:10458000000000000100000600000C0000380000E0
:104590003100000600000C00003800003000000070
:1045A00000000000000061800067F807F9800061EA
:1045B000800061800061800061800067F807F980F9
:1045C00000618000000000000000000001C0E00366
:1045D000E0F00630080418081FFFFE040E080787E5
:1045E000F00381E000000000000001F000060C0074
:1045F000040408060C7001F9C0000E00003BE00046
:10460000EC18070808040C180003E0000000000183
:10461000E00007F003F818041C0804170807E1D0AD
:1046200003C0E00023B0003C080020080000100098
:1046300000000000000100003100003200001C00FA
:10464000000000000000000000000000000000006A
:10465000000000000000000000000000000000005A
:104660000000000000007F0001FFC00780F00C0088
:1046700018100004200002000000000000200002CA
:104680001000040C00180780F001FFC0007F00003C
:10469000000000000000000000000000000000001A
:1046A00000004200006600006600003C00001800A8
:1046B00003FFC0001800003C000066000066000018
:1046C0004200000000000800000800000800000888
:1046D0000000080001FFC0000800000800000800FA
:1046E0000008000008000000000000010000310088
:1046F000003200001C00000000000000000000006C
:1047000000000000000000000000000000000800A1
:104710000008000008000008000008000008000071
:104720000800000800000800000800000000000069
:1047300000000000000038000038000038000000D1
:104740000000000000000000000000000000000069
:10475000000000000000000600001C0000700001C6
:1047600080000E0000380000C0000700001C0000A0
:10477000300000000000000000007F8001FFE00327
:104780008070060018040008040008060018038062
:104790007001FFE0007F80000000000000000000CA
:1047A00001000801000801000803FFF807FFF800F6
:1047B00000080000080000080000000000000000E1
:1047C0000001C03802C058040098040118040218FF
:1047D000040418061C1803F81801E0F80000000093
:1047E000000000000001C0E003C0F004000804085D
:1047F0000804080806180803F41801E7F00001E0AF
:10480000000000000000000000000300000D000098
:10481000110000610000810803010807FFF80FFF85
:10482000F80001080001080000000000000000E09E
:1048300007FCD0060808061008061008061008062F
:104840001838060FF00607C0000000000000000046
:1048500000003F8001FFE0038430020818041008C4
:10486000041008041008071810030FF00007C00018
:10487000000000000000000003C000070000060068
:10488000000600F80607F806180006E0000700001A
:1048900006000000000000000001E1E003F7F00660
:1048A0003410041808041808040C08040C08061630
:1048B0001803F3F001C1E000000000000000F80060
:1048C00003FC30030638040208040208040208044A
:1048D00004100308F001FFC0007F0000000000008A
:1048E0000000000000000000000000000000703820
:1048F0000070380070380000000000000000000068
:1049000000000000000000000000000000000000A7
:104910000000301A00301C00000000000000000001
:10492000000000000000000000000000000800007F
:1049300014000022000041000080800100400200BD
:104940002004001008000800000000000000210002
:1049500000210000210000210000210000210000B2
:1049600021000021000021000021000000000000C3
:1049700000000000080008040010020020010040B0
:1049800000808000410000220000140000080000A8
:10499000000000000003C00004C000040000080084
:1049A00038080F380808380810000C300007E000FD
:1049B00003C000000000000000003F8000FFE00393
:1049C0008070020F1006708804C088048308047F7A
:1049D0008802C09003012000FE400000080000187B
:1049E0000001F8003E0801C20007020007E20000D3
:1049F000FE00001FC80001F8000038000008040095
:104A00000807FFF807FFF804080804080804080866
:104A100004080806180803F41801E7F00001E00094
:104A20000000000000003F8001FFE00380700200F2
:104A30001804000804000804000804001006002000
:104A40000780C000000004000807FFF807FFF80413
:104A50000008040008040008040018020010038085
:104A60007001FFE0007F8000000004000807FFF8ED
:104A700007FFF804080804080804080804080804E4
:104A80003E08040008060018010060000000040051
:104A90000807FFF807FFF8040808040800040800E6
:104AA000040800043E00060000060000018000002B
:104AB0000000000000003F8001FFE003807006005E
:104AC000180400080402080402080203F00783F037
:104AD00000020000020004000807FFF807FFF804C6
:104AE000080800080000080000080000080004088A
:104AF0000807FFF807FFF8040008000000000000A6
:104B000004000804000804000807FFF807FFF80481
:104B10000008040008040008000000000000000075
:104B2000000000060000070000010400010400016D
:104B300004000307FFFE07FFFC040000040000045C
:104B4000000004000807FFF807FFF8040C0800182D
:104B500000003E0004C7800503C80600F8040038C2
:104B600004001800000804000807FFF807FFF80415
:104B7000000800000800000800000800000800000D
:104B80000800001800006000000004000807FFF89B
:104B900007800807FC00007FC00003F80007C00082
:104BA000780007800807FFF807FFF80400080400F2
:104BB0000807FFF807000803C00000E00000380005
:104BC000001E000007000001C00400F007FFF80409
:104BD0000000000000007F8001FFE00380700600FD
:104BE0001804000804000806001803003001FFE064
:104BF000007F8000000004000807FFF807FFF804AA
:104C00000408040400040400040400040400060C66
:104C10000003F80001F000000000000000007F80A9
:104C200001FFE00380700600880400880400C806C5
:104C3000003C03003E01FFE6007F8400000004000A
:104C40000807FFF807FFF8040808040800040C0030
:104C5000040F00040BC00610F003F03801E0080058
:104C6000000800000001E0F803F0300630100418DE
:104C700008041808040C08040C080206180207F0BF
:104C80000781E0000000018000060000040000042D
:104C9000000004000807FFF807FFF80400080400FC
:104CA0000004000006000001800004000007FFE08F
:104CB00007FFF004001800000800000800000800CA
:104CC000000800000804001007FFE00400000400D2
:104CD0000006000007E00007FE00041FE00001F8E6
:104CE0000000380001E0043E0007C0000600000498
:104CF000000004000007E00007FFC0041FF80007E1
:104D0000C007F80007FF80043FF80007C004F80060
:104D10000700000400000000000400080600180757
:104D2000C07805F1C8003E00001F800463E80780DA
:104D3000F806001804000800000004000006000047
:104D400007800007E008047C08001FF80007F8004F
:104D5000180804E008070000060000040000000036
:104D6000000100080600380400F80403E8040F08F6
:104D7000047C0805F00807C008070018040060005C
:104D80000000000000000000000000000000000023
:104D9000003FFFFE2000022000022000022000024F
:104DA00020000200000000000000000008000007D2
:104DB000000000C0000038000006000001C0000034
:104DC0003000000E000001000000000000000000A4
:104DD0002000022000022000022000022000023FEA
:104DE000FFFE0000000000000000000000000000C6
:104DF000000000000000000800001000003000006B
:104E0000200000300000100000080000000000003A
:104E1000000000000100000100000100000100008E
:104E2000010000010000010000010000010000017C
:104E30000000010000010000000000000000002050
:104E40000000200000100000100000000000000022
:104E5000000000000000000000000000000000F062
:104E60000019F8001B18002208002608002408007A
:104E70002410003FF8001FF8000008000018000090
:104E80000004000007FFF80FFFF0001818001008DA
:104E9000002008002008003018001FF0000FC0009C
:104EA00000000000000007C0001FF00018300020C4
:104EB00008002008002008003C08001C10000060CA
:104EC0000000000000000000000007C0001FF0000C
:104ED000381800200800200800200804101007FFE0
:104EE000F80FFFF0000010000000000000000000BC
:104EF0000007C0001FF00012300022180022080036
:104F00002208003208001E10000E200000000000E1
:104F10000000200000200800200801FFF803FFF82F
:104F200006200804200804200807200003000000D1
:104F3000000000000000000E000E6E001FF30031A4
:104F4000B10020B10020B1003191001F13002E1ECE
:104F500000200E00300000000004000807FFF80FDA
:104F6000FFF8001008002000002000002008003F8B
:104F7000F8001FF80000080000000000000000001A
:104F8000002008002008002008063FF8063FF8002F
:104F900000080000080000080000000000000000F9
:104FA00000000000000003000003002001002001B9
:104FB000002003063FFE063FFC000000000000004A
:104FC000000000000004000807FFF80FFFF80001D0
:104FD00088000300002FC00038F8002038002008A7
:104FE00000000800000000000000000004000804A9
:104FF000000804000807FFF80FFFF8000008000091
:1050000008000008000000000000002008003FF831
:10501000003FF8001008002000003FF8003FF800B3
:105020001008002000003FF8003FF80000080000D2
:1050300000002008003FF8003FF8001008001000B2
:10504000002000002008003FF8001FF800000800C2
:1050500000000000000007C0000FF0001830003012
:1050600008002008002008003008001830000FF069
:105070000007C0000000000000002001003FFF000A
:105080003FFF001011002009002008002008003018
:1050900038001FF0000FC00000000000000007C033
:1050A000001FF00038180020080020080020090028
:1050B0001011001FFF003FFF000001000000002052
:1050C00008002008002008003FF8003FF80008080A
:1050D0000010080020080020000030000030000010
:1050E0000000000000000000000C78001E180033D3
:1050F000080023080021080021880021980030F0D2
:1051000000386000000000000000200000200000C7
:10511000200000FFF003FFF8002008002008002016
:105120000800003000000000000000000000200027
:10513000003FF0007FF800001800000800000800A1
:105140002010003FF8007FF0000010000000000079
:1051500000002000003000003C00003F800023F0F1
:10516000000078000070002380003C000030000048
:105170002000002000003C00003FE00023F8000079
:10518000E0002700003E00003FE00021F80001E0C1
:10519000003E000020000000000020080020080061
:1051A0003838003E680027800003C8002CF800381B
:1051B0003800201800200800000000000000200037
:1051C000003003003C01003F830023EC000070002E
:1051D0002380003C000020000020000000000000B0
:1051E000000000000038080020380020F80023E804
:1051F000002F88003E0800380800201800007000CA
:10520000000000000000000000000000000000009E
:10521000000008000014001FF7FC30000620000208
:10522000000000000000000000000000000000007E
:105230000000000000000000FFFFFF000000000071
:10524000000000000000000000000000000000005E
:105250002000023000061FF7FC00140000080000C8
:10526000000000000000000000000000000000003E
:105270000018000060000040000040000020000016
:105280001000000800000400000400000C000010E2
:1052900000000000B4520008000000207414000058
:1052A000E4350008E4530008741400208C08000062
:1052B0006C3600081184A24A042009010203040686
:1052C000070809251060028C2BFE920132FE180A95
:1052D00004047E01407E42427E0234427E40280920
:1052E000FC242424FC252624081204481040308F76
:1052F00080844C55252525554C80808040493F7938
:1053000040080B204448507F40407F50484440288C
:1053100009060909E6F80C04020153041E2E071FB2
:105320003020400103C520101AC0E829014BFC843D
:10533000080336C0C03CFF7F40014AFF07043E40DF
:10534000FF7F034A7F700373FCF86CFFFE02018B42
:10535000FFFF0B0268036C1F1F04017BFFFF0B02A2
:10536000741F038C7F3F07FFF8F8F0F0702001E610
:105370000214801AFF0109122C09132D01FF01C02C
:10538000EDFFFFFE06011AFF01F915391603FF07AD
:105390000201D10C12FFFFFF1409101509151601A7
:1053A000FF01C1EDFFFFFF1801191409101539168F
:1053B00001FF01D204120201011AFF0101120912B8
:1053C0002A01FF01D71AFF0101FF01FD05FF1F1F81
:1053D0000F0F01F22D01020304044009060708091A
:0453E00002040608B5
:0400000508000131BD
:00000001FF
